{
  "_format": "hh-sol-artifact-1",
  "contractName": "Voting",
  "sourceName": "contracts/Voting.sol",
  "abi": [
    {
      "inputs": [
        {
          "internalType": "string[]",
          "name": "_candidateNames",
          "type": "string[]"
        },
        {
          "internalType": "string[]",
          "name": "_candidateImages",
          "type": "string[]"
        },
        {
          "internalType": "uint256",
          "name": "_durationInMinutes",
          "type": "uint256"
        }
      ],
      "stateMutability": "nonpayable",
      "type": "constructor"
    },
    {
      "inputs": [
        {
          "internalType": "string",
          "name": "_name",
          "type": "string"
        },
        {
          "internalType": "string",
          "name": "_image",
          "type": "string"
        }
      ],
      "name": "addCandidate",
      "outputs": [],
      "stateMutability": "nonpayable",
      "type": "function"
    },
    {
      "inputs": [
        {
          "internalType": "uint256",
          "name": "",
          "type": "uint256"
        }
      ],
      "name": "candidates",
      "outputs": [
        {
          "internalType": "string",
          "name": "name",
          "type": "string"
        },
        {
          "internalType": "uint256",
          "name": "voteCount",
          "type": "uint256"
        },
        {
          "internalType": "string",
          "name": "image",
          "type": "string"
        }
      ],
      "stateMutability": "view",
      "type": "function"
    },
    {
      "inputs": [],
      "name": "getAllVotesOfCandidates",
      "outputs": [
        {
          "components": [
            {
              "internalType": "string",
              "name": "name",
              "type": "string"
            },
            {
              "internalType": "uint256",
              "name": "voteCount",
              "type": "uint256"
            },
            {
              "internalType": "string",
              "name": "image",
              "type": "string"
            }
          ],
          "internalType": "struct Voting.Candidate[]",
          "name": "",
          "type": "tuple[]"
        }
      ],
      "stateMutability": "view",
      "type": "function"
    },
    {
      "inputs": [],
      "name": "getRemainingTime",
      "outputs": [
        {
          "internalType": "uint256",
          "name": "",
          "type": "uint256"
        }
      ],
      "stateMutability": "view",
      "type": "function"
    },
    {
      "inputs": [],
      "name": "getVotingStatus",
      "outputs": [
        {
          "internalType": "bool",
          "name": "",
          "type": "bool"
        }
      ],
      "stateMutability": "view",
      "type": "function"
    },
    {
      "inputs": [],
      "name": "resetVotes",
      "outputs": [],
      "stateMutability": "nonpayable",
      "type": "function"
    },
    {
      "inputs": [
        {
          "internalType": "uint256",
          "name": "_candidateIndex",
          "type": "uint256"
        }
      ],
      "name": "vote",
      "outputs": [],
      "stateMutability": "nonpayable",
      "type": "function"
    },
    {
      "inputs": [
        {
          "internalType": "uint256",
          "name": "",
          "type": "uint256"
        }
      ],
      "name": "voterList",
      "outputs": [
        {
          "internalType": "address",
          "name": "",
          "type": "address"
        }
      ],
      "stateMutability": "view",
      "type": "function"
    },
    {
      "inputs": [
        {
          "internalType": "address",
          "name": "",
          "type": "address"
        }
      ],
      "name": "voters",
      "outputs": [
        {
          "internalType": "bool",
          "name": "",
          "type": "bool"
        }
      ],
      "stateMutability": "view",
      "type": "function"
    },
    {
      "inputs": [],
      "name": "votingEnd",
      "outputs": [
        {
          "internalType": "uint256",
          "name": "",
          "type": "uint256"
        }
      ],
      "stateMutability": "view",
      "type": "function"
    },
    {
      "inputs": [],
      "name": "votingStart",
      "outputs": [
        {
          "internalType": "uint256",
          "name": "",
          "type": "uint256"
        }
      ],
      "stateMutability": "view",
      "type": "function"
    }
  ],
  "bytecode": "0x60806040523480156200001157600080fd5b5060405162001cb438038062001cb4833981810160405281019062000037919062000564565b81518351146200007e576040517f08c379a0000000000000000000000000000000000000000000000000000000008152600401620000759062000685565b60405180910390fd5b60005b83518110156200016c5760006040518060600160405280868481518110620000ae57620000ad620006a7565b5b6020026020010151815260200160008152602001858481518110620000d857620000d7620006a7565b5b6020026020010151815250908060018154018082558091505060019003906000526020600020906003020160009091909190915060008201518160000190805190602001906200012a929190620001e0565b5060208201518160010155604082015181600201908051906020019062000153929190620001e0565b5050508080620001639062000705565b91505062000081565b5033600160006101000a81548173ffffffffffffffffffffffffffffffffffffffff021916908373ffffffffffffffffffffffffffffffffffffffff16021790555042600481905550603c81620001c4919062000753565b42620001d19190620007b4565b60058190555050505062000876565b828054620001ee9062000840565b90600052602060002090601f0160209004810192826200021257600085556200025e565b82601f106200022d57805160ff19168380011785556200025e565b828001600101855582156200025e579182015b828111156200025d57825182559160200191906001019062000240565b5b5090506200026d919062000271565b5090565b5b808211156200028c57600081600090555060010162000272565b5090565b6000604051905090565b600080fd5b600080fd5b600080fd5b6000601f19601f8301169050919050565b7f4e487b7100000000000000000000000000000000000000000000000000000000600052604160045260246000fd5b620002f482620002a9565b810181811067ffffffffffffffff82111715620003165762000315620002ba565b5b80604052505050565b60006200032b62000290565b9050620003398282620002e9565b919050565b600067ffffffffffffffff8211156200035c576200035b620002ba565b5b602082029050602081019050919050565b600080fd5b600080fd5b600067ffffffffffffffff821115620003955762000394620002ba565b5b620003a082620002a9565b9050602081019050919050565b60005b83811015620003cd578082015181840152602081019050620003b0565b83811115620003dd576000848401525b50505050565b6000620003fa620003f48462000377565b6200031f565b90508281526020810184848401111562000419576200041862000372565b5b62000426848285620003ad565b509392505050565b600082601f830112620004465762000445620002a4565b5b815162000458848260208601620003e3565b91505092915050565b60006200047862000472846200033e565b6200031f565b905080838252602082019050602084028301858111156200049e576200049d6200036d565b5b835b81811015620004ec57805167ffffffffffffffff811115620004c757620004c6620002a4565b5b808601620004d689826200042e565b85526020850194505050602081019050620004a0565b5050509392505050565b600082601f8301126200050e576200050d620002a4565b5b81516200052084826020860162000461565b91505092915050565b6000819050919050565b6200053e8162000529565b81146200054a57600080fd5b50565b6000815190506200055e8162000533565b92915050565b60008060006060848603121562000580576200057f6200029a565b5b600084015167ffffffffffffffff811115620005a157620005a06200029f565b5b620005af86828701620004f6565b935050602084015167ffffffffffffffff811115620005d357620005d26200029f565b5b620005e186828701620004f6565b9250506040620005f4868287016200054d565b9150509250925092565b600082825260208201905092915050565b7f4e616d657320616e6420696d6167657320617272617973206d7573742068617660008201527f65207468652073616d65206c656e677468000000000000000000000000000000602082015250565b60006200066d603183620005fe565b91506200067a826200060f565b604082019050919050565b60006020820190508181036000830152620006a0816200065e565b9050919050565b7f4e487b7100000000000000000000000000000000000000000000000000000000600052603260045260246000fd5b7f4e487b7100000000000000000000000000000000000000000000000000000000600052601160045260246000fd5b6000620007128262000529565b91507fffffffffffffffffffffffffffffffffffffffffffffffffffffffffffffffff821415620007485762000747620006d6565b5b600182019050919050565b6000620007608262000529565b91506200076d8362000529565b9250817fffffffffffffffffffffffffffffffffffffffffffffffffffffffffffffffff0483118215151615620007a957620007a8620006d6565b5b828202905092915050565b6000620007c18262000529565b9150620007ce8362000529565b9250827fffffffffffffffffffffffffffffffffffffffffffffffffffffffffffffffff03821115620008065762000805620006d6565b5b828201905092915050565b7f4e487b7100000000000000000000000000000000000000000000000000000000600052602260045260246000fd5b600060028204905060018216806200085957607f821691505b6020821081141562000870576200086f62000811565b5b50919050565b61142e80620008866000396000f3fe608060405234801561001057600080fd5b50600436106100a95760003560e01c8063581c281c11610071578063581c281c1461016657806385a386351461018457806390a9ab90146101a2578063a3ec138d146101c0578063b9830ff1146101f0578063efb98bcf146101fa576100a9565b80630121b93f146100ae578063101158af146100ca57806326541b56146100e85780633477ee2e1461010457806350e2e8af14610136575b600080fd5b6100c860048036038101906100c39190610b85565b610218565b005b6100d26103e5565b6040516100df9190610bc1565b60405180910390f35b61010260048036038101906100fd9190610d22565b6103eb565b005b61011e60048036038101906101199190610b85565b61050c565b60405161012d93929190610e22565b60405180910390f35b610150600480360381019061014b9190610b85565b610656565b60405161015d9190610ea8565b60405180910390f35b61016e610695565b60405161017b9190610ede565b60405180910390f35b61018c6106af565b6040516101999190610bc1565b60405180910390f35b6101aa6106b5565b6040516101b7919061106b565b60405180910390f35b6101da60048036038101906101d591906110b9565b610842565b6040516101e79190610ede565b60405180910390f35b6101f8610862565b005b610202610a0a565b60405161020f9190610bc1565b60405180910390f35b600260003373ffffffffffffffffffffffffffffffffffffffff1673ffffffffffffffffffffffffffffffffffffffff16815260200190815260200160002060009054906101000a900460ff16156102a5576040517f08c379a000000000000000000000000000000000000000000000000000000000815260040161029c90611132565b60405180910390fd5b60008054905081106102ec576040517f08c379a00000000000000000000000000000000000000000000000000000000081526004016102e39061119e565b60405180910390fd5b60008181548110610300576102ff6111be565b5b906000526020600020906003020160010160008154809291906103229061121c565b91905055506001600260003373ffffffffffffffffffffffffffffffffffffffff1673ffffffffffffffffffffffffffffffffffffffff16815260200190815260200160002060006101000a81548160ff0219169083151502179055506003339080600181540180825580915050600190039060005260206000200160009091909190916101000a81548173ffffffffffffffffffffffffffffffffffffffff021916908373ffffffffffffffffffffffffffffffffffffffff16021790555050565b60045481565b600160009054906101000a900473ffffffffffffffffffffffffffffffffffffffff1673ffffffffffffffffffffffffffffffffffffffff163373ffffffffffffffffffffffffffffffffffffffff161461047b576040517f08c379a0000000000000000000000000000000000000000000000000000000008152600401610472906112d7565b60405180910390fd5b600060405180606001604052808481526020016000815260200183815250908060018154018082558091505060019003906000526020600020906003020160009091909190915060008201518160000190805190602001906104de929190610a77565b50602082015181600101556040820151816002019080519060200190610505929190610a77565b5050505050565b6000818154811061051c57600080fd5b906000526020600020906003020160009150905080600001805461053f90611326565b80601f016020809104026020016040519081016040528092919081815260200182805461056b90611326565b80156105b85780601f1061058d576101008083540402835291602001916105b8565b820191906000526020600020905b81548152906001019060200180831161059b57829003601f168201915b5050505050908060010154908060020180546105d390611326565b80601f01602080910402602001604051908101604052809291908181526020018280546105ff90611326565b801561064c5780601f106106215761010080835404028352916020019161064c565b820191906000526020600020905b81548152906001019060200180831161062f57829003601f168201915b5050505050905083565b6003818154811061066657600080fd5b906000526020600020016000915054906101000a900473ffffffffffffffffffffffffffffffffffffffff1681565b600060045442101580156106aa575060055442105b905090565b60055481565b60606000805480602002602001604051908101604052809291908181526020016000905b82821015610839578382906000526020600020906003020160405180606001604052908160008201805461070c90611326565b80601f016020809104026020016040519081016040528092919081815260200182805461073890611326565b80156107855780601f1061075a57610100808354040283529160200191610785565b820191906000526020600020905b81548152906001019060200180831161076857829003601f168201915b50505050508152602001600182015481526020016002820180546107a890611326565b80601f01602080910402602001604051908101604052809291908181526020018280546107d490611326565b80156108215780601f106107f657610100808354040283529160200191610821565b820191906000526020600020905b81548152906001019060200180831161080457829003601f168201915b505050505081525050815260200190600101906106d9565b50505050905090565b60026020528060005260406000206000915054906101000a900460ff1681565b600160009054906101000a900473ffffffffffffffffffffffffffffffffffffffff1673ffffffffffffffffffffffffffffffffffffffff163373ffffffffffffffffffffffffffffffffffffffff16146108f2576040517f08c379a00000000000000000000000000000000000000000000000000000000081526004016108e9906112d7565b60405180910390fd5b60005b60008054905081101561093f576000808281548110610917576109166111be565b5b90600052602060002090600302016001018190555080806109379061121c565b9150506108f5565b5060005b6003805490508110156109f9576000600260006003848154811061096a576109696111be565b5b9060005260206000200160009054906101000a900473ffffffffffffffffffffffffffffffffffffffff1673ffffffffffffffffffffffffffffffffffffffff1673ffffffffffffffffffffffffffffffffffffffff16815260200190815260200160002060006101000a81548160ff02191690831515021790555080806109f19061121c565b915050610943565b5060036000610a089190610afd565b565b6000600454421015610a51576040517f08c379a0000000000000000000000000000000000000000000000000000000008152600401610a48906113a4565b60405180910390fd5b6005544210610a635760009050610a74565b42600554610a7191906113c4565b90505b90565b828054610a8390611326565b90600052602060002090601f016020900481019282610aa55760008555610aec565b82601f10610abe57805160ff1916838001178555610aec565b82800160010185558215610aec579182015b82811115610aeb578251825591602001919060010190610ad0565b5b509050610af99190610b1e565b5090565b5080546000825590600052602060002090810190610b1b9190610b1e565b50565b5b80821115610b37576000816000905550600101610b1f565b5090565b6000604051905090565b600080fd5b600080fd5b6000819050919050565b610b6281610b4f565b8114610b6d57600080fd5b50565b600081359050610b7f81610b59565b92915050565b600060208284031215610b9b57610b9a610b45565b5b6000610ba984828501610b70565b91505092915050565b610bbb81610b4f565b82525050565b6000602082019050610bd66000830184610bb2565b92915050565b600080fd5b600080fd5b6000601f19601f8301169050919050565b7f4e487b7100000000000000000000000000000000000000000000000000000000600052604160045260246000fd5b610c2f82610be6565b810181811067ffffffffffffffff82111715610c4e57610c4d610bf7565b5b80604052505050565b6000610c61610b3b565b9050610c6d8282610c26565b919050565b600067ffffffffffffffff821115610c8d57610c8c610bf7565b5b610c9682610be6565b9050602081019050919050565b82818337600083830152505050565b6000610cc5610cc084610c72565b610c57565b905082815260208101848484011115610ce157610ce0610be1565b5b610cec848285610ca3565b509392505050565b600082601f830112610d0957610d08610bdc565b5b8135610d19848260208601610cb2565b91505092915050565b60008060408385031215610d3957610d38610b45565b5b600083013567ffffffffffffffff811115610d5757610d56610b4a565b5b610d6385828601610cf4565b925050602083013567ffffffffffffffff811115610d8457610d83610b4a565b5b610d9085828601610cf4565b9150509250929050565b600081519050919050565b600082825260208201905092915050565b60005b83811015610dd4578082015181840152602081019050610db9565b83811115610de3576000848401525b50505050565b6000610df482610d9a565b610dfe8185610da5565b9350610e0e818560208601610db6565b610e1781610be6565b840191505092915050565b60006060820190508181036000830152610e3c8186610de9565b9050610e4b6020830185610bb2565b8181036040830152610e5d8184610de9565b9050949350505050565b600073ffffffffffffffffffffffffffffffffffffffff82169050919050565b6000610e9282610e67565b9050919050565b610ea281610e87565b82525050565b6000602082019050610ebd6000830184610e99565b92915050565b60008115159050919050565b610ed881610ec3565b82525050565b6000602082019050610ef36000830184610ecf565b92915050565b600081519050919050565b600082825260208201905092915050565b6000819050602082019050919050565b600082825260208201905092915050565b6000610f4182610d9a565b610f4b8185610f25565b9350610f5b818560208601610db6565b610f6481610be6565b840191505092915050565b610f7881610b4f565b82525050565b60006060830160008301518482036000860152610f9b8282610f36565b9150506020830151610fb06020860182610f6f565b5060408301518482036040860152610fc88282610f36565b9150508091505092915050565b6000610fe18383610f7e565b905092915050565b6000602082019050919050565b600061100182610ef9565b61100b8185610f04565b93508360208202850161101d85610f15565b8060005b85811015611059578484038952815161103a8582610fd5565b945061104583610fe9565b925060208a01995050600181019050611021565b50829750879550505050505092915050565b600060208201905081810360008301526110858184610ff6565b905092915050565b61109681610e87565b81146110a157600080fd5b50565b6000813590506110b38161108d565b92915050565b6000602082840312156110cf576110ce610b45565b5b60006110dd848285016110a4565b91505092915050565b7f596f75206861766520616c726561647920766f7465642e000000000000000000600082015250565b600061111c601783610da5565b9150611127826110e6565b602082019050919050565b6000602082019050818103600083015261114b8161110f565b9050919050565b7f496e76616c69642063616e64696461746520696e6465782e0000000000000000600082015250565b6000611188601883610da5565b915061119382611152565b602082019050919050565b600060208201905081810360008301526111b78161117b565b9050919050565b7f4e487b7100000000000000000000000000000000000000000000000000000000600052603260045260246000fd5b7f4e487b7100000000000000000000000000000000000000000000000000000000600052601160045260246000fd5b600061122782610b4f565b91507fffffffffffffffffffffffffffffffffffffffffffffffffffffffffffffffff82141561125a576112596111ed565b5b600182019050919050565b7f4f6e6c7920746865206f776e65722063616e2063616c6c20746869732066756e60008201527f6374696f6e000000000000000000000000000000000000000000000000000000602082015250565b60006112c1602583610da5565b91506112cc82611265565b604082019050919050565b600060208201905081810360008301526112f0816112b4565b9050919050565b7f4e487b7100000000000000000000000000000000000000000000000000000000600052602260045260246000fd5b6000600282049050600182168061133e57607f821691505b60208210811415611352576113516112f7565b5b50919050565b7f566f74696e6720686173206e6f742073746172746564207965742e0000000000600082015250565b600061138e601b83610da5565b915061139982611358565b602082019050919050565b600060208201905081810360008301526113bd81611381565b9050919050565b60006113cf82610b4f565b91506113da83610b4f565b9250828210156113ed576113ec6111ed565b5b82820390509291505056fea264697066735822122015a52bece39b9d73f77e07840804c9683f2ddde82a3538351d4d73d09b152ce464736f6c634300080b0033",
  "linkReferences": {},
  "deployedLinkReferences": {}
}